:020000040800F2
:10000000980600209D010008E9210008111B000846
:1000100051200008C1050008292B0008000000003D
:100020000000000000000000000000000D22000899
:10003000C3050008000000000B2200080F22000882
:10004000B7010008B7010008B7010008B7010008B0
:10005000B7010008B7010008B7010008B7010008A0
:10006000B7010008B7010008B7010008B701000890
:10007000B7010008B7010008B7010008B701000880
:10008000B7010008B7010008B7010008B701000870
:10009000B7010008B7010008B7010008B701000860
:1000A000B7010008B7010008B7010008B701000850
:1000B0000D23000819230008B7010008B701000844
:1000C000B7010008B7010008B7010008B701000830
:1000D000B7010008092B0008B7010008B7010008A4
:1000E000B7010008B7010008B7010008B701000810
:1000F0004123000825230008B7010008B7010008C4
:10010000B7010008B7010008B7010008B7010008EF
:10011000B7010008B7010008B7010008B7010008DF
:10012000B7010008B7010008B7010008B7010008CF
:10013000B7010008B7010008B7010008B7010008BF
:10014000B7010008B7010008B7010008B7010008AF
:10015000B7010008B7010008B7010008B70100089F
:10016000B7010008B7010008B7010008B70100088F
:10017000B7010008B7010008B7010008000000003F
:10018000B7010008B7010008DFF80CD000F006FA4C
:10019000004800471D2C00089806002006488047AC
:1001A00006480047FEE7FEE7FEE7FEE7FEE7FEE75C
:1001B000FEE7FEE7FEE7FEE7B92200088901000836
:1001C0002DE9F05F0546002092469B46884606468C
:1001D000814640241BE0284641464746224600F01F
:1001E00039F953465A46C01A914110D31146184660
:1001F000224600F020F92D1A67EB01084F462246EF
:100200000120002100F017F917EB00094E41201ED4
:10021000A4F10104DFDC484631462A464346BDE8E6
:10022000F09F2DE9FE4F81EA030404F0004421F021
:10023000004100944FF0000B23F0004350EA01040A
:100240005ED052EA03045BD0C3F30A54C1F30A55EB
:100250002C44A4F2F3340194A0FB0254C1F3130123
:1002600041F48011C3F3130343F4801301FB0244F0
:1002700000FB034E840A970A44EA815447EA8357F5
:10028000A4FB076802958D0A05FB07854FEA932CAE
:1002900004FB0C542705029D4FEA065847EA16371F
:1002A000B5EB08056EEB070C870E920E47EA811737
:1002B00042EA8312A7FB0201B6EB0B0164EB0004D8
:1002C0002B0D43EA0C335E1844EB1C50DA465146C2
:1002D000E7FB0201C5F313044FEA0B3343EA14535F
:1002E0004FEA0432019C43EA0603A4F10C04029491
:1002F000009CCDE900B400F003F903B0BDE8F08F35
:1003000000200146F9E72DE9F04D81EA030404F0ED
:10031000004B21F0004514464FF0000A23F0004145
:1003200050EA050220D054EA01021DD0C5F30A5755
:100330000246C5F31303C1F31300C1F30A5640F498
:10034000801543F48013A7EB0608101BD64608F26D
:10035000FD3873EB050002D308F1010801E09218A3
:100360005B41B8F1000F03DA00200146BDE8F08DD3
:1003700000204FF48011064684460EE0171B73EBF5
:10038000050705D3121B63EB050306434CEA010C7A
:1003900049084FEA300092185B4150EA0107EDD15D
:1003A00052EA030012D082EA040083EA05010843FE
:1003B00005D0101BAB4106D20122002306E000222B
:1003C0004FF0004302E06FF0010253101AEB0600F9
:1003D0004CEB085110EB0A0041EB0B01BDE8F04D6E
:1003E00000F07FB80EB540F2334102910021CDE913
:1003F00000110A460B4600F083F803B000BD01F07F
:10040000004330B421F0004150EA010206D00A0D49
:10041000A2F56072C1F31301002A02DC30BC002097
:100420007047440F44EAC104C100E01830BC00EB3F
:10043000C25000F01FB8202A04DB203A00FA02F173
:10044000002070479140C2F1200320FA03F31943C2
:1004500090407047202A04DB203A21FA02F0002164
:10046000704721FA02F3D040C2F1200291400843C4
:10047000194670470029A8BF7047401C490008BFB3
:1004800020F00100704710B4B0FA80FC00FA0CF0C4
:1004900050EA010404BF10BC704749B1CCF12004FC
:1004A00021FA04F411FA0CF118BF01212143084389
:1004B000A3EB0C01CB1D4FEA00614FEA102042BFB5
:1004C000002010BC704700EBC35010440029A4BFAB
:1004D00010BC7047401C490008BF20F0010010BC50
:1004E000704710B5141E73F1000408DA401C41F186
:1004F000000192185B411A4301D120F0010010BDA8
:100500002DE9F04D92469B4611B1B1FA81F202E01D
:10051000B0FA80F220329046FFF78DFF04460F4676
:1005200040EA0A0041EA0B0153465A46084313D0F9
:10053000114653EA010019D0C8F140025046FFF7B6
:1005400089FF05460E46504659464246FFF773FF5F
:10055000084305D0012004E020463946BDE8F08D6F
:100560000020054346EAE0762C4337430A986305AA
:10057000E40AA0EB08000022FD0A44EA47540A30CE
:1005800002D500200146E9E7010510196941DDE9BE
:10059000084500196941BDE8F04DA2E7064C074D3A
:1005A00006E0E06840F0010394E807009847103443
:1005B000AC42F6D3FFF7ECFD442D0008642D000893
:1005C000FEE7704790F83510022903D0802141657D
:1005D00001207047052180F835100068016821F07E
:1005E00001010160002070472DE9F84FDFF87CB170
:1005F00000224FF001084FF0030A4FF00F090BF1F2
:10060000040E00BF0B6808FA02F42340A3426ED127
:100610004D68022D01D0122D0ED1D50800EB850CAE
:10062000DCF820505607F70E09FA07F6B5430E69B5
:10063000BE402E43CCF82060066855000F790AFAB8
:1006400005FC07F0030726EA0C06AF4037430760B6
:100650004E68012E05D0022E03D0112E01D0122E8D
:100660000ED18668CF6826EA0C06AF403743876014
:100670004668A6430C79C4F30014944034434460A4
:10068000C6688C6826EA0C06AC403443C4604C68EB
:10069000E40065D5364C256845F48045256024681E
:1006A00022F0030504F480440094324C2E19D6F84D
:1006B000084895072F0F09FA07F5AC432E4DA842BD
:1006C00001D1002524E02D4DA84201D101251FE0D4
:1006D0002B4DA84201D102251AE02A4DA84201D192
:1006E000032515E0284DA84202D1042510E037E08B
:1006F000264DA84201D105250AE0254DA84201D189
:10070000062505E0234DA84201D1072500E0082574
:10071000BD402543C6F80858DBF800405D464E68EA
:100720009C43F60300D51C432C60DEF80040754660
:100730004E689C43B60300D51C432C600B4D083516
:100740002C684E689C43F60200D51C432C60074D74
:100750000C352C684E689C43B60200D51C432C60B7
:10076000521C102AFFF44EAFBDE8F88F003C014048
:1007700044380240003001400000024000040240C2
:1007800000080240000C0240001002400014024029
:1007900000180240001C02400148806870470000B9
:1007A0003C00002002488168027811448160704753
:1007B0003C0000200B4810B5016841F40071016055
:1007C000016841F480610160016841F48071016059
:1007D000032000F097F8002000F006F800F024F85D
:1007E000002010BD003C024070B50D4D04464FF492
:1007F0007A712878B1FBF0F00A490968B1FBF0F092
:1008000000F01BFB48B9102C07D200222146501ED5
:1008100000F058F800206C6070BD012070BD000031
:100820003C000020480000201F4808B5016841F442
:1008300080410160006800F4804000901A48001F69
:10084000016841F080510160006800F08050009024
:10085000032000F057F8002211466FF00B0000F063
:1008600031F8002211466FF00A0000F02BF8002248
:1008700011466FF0090000F025F800221146501FC4
:1008800000F020F800221146101F00F01BF8002293
:100890001146901E00F016F80022BDE808401146EF
:1008A000501E00F00FB800004438024000F01F0254
:1008B000012191404009800000F1E020C0F80011C2
:1008C00070470000F0B40E4B1B680C46C3F30223C4
:1008D000C3F10705042D00D90425191D072901D2EC
:1008E000002300E0DB1E012606FA05F1491E214027
:1008F00099409E40761E16403143F0BC01F075BC15
:100900000CED00E0064900F0070208684FF6FF030F
:10091000184040EA0220034A104308607047000074
:100920000CED00E00000FA052DE9F0470E46050049
:1009300065D0DFF81481D8F80000F7B200F00F009E
:10094000B04207D288F80070D8F8000000F00F001D
:10095000B04254D128683D4C810712D5400703D5D9
:10096000206840F4E05020602878000703D5206814
:1009700040F4604020602068A96820F0F00008433F
:1009800020602878C0072DD03049686808390128D0
:1009900012D0022813D0032811D009688907002932
:1009A0002DDA216821F0030101432160FFF7F4FEF5
:1009B000814641F2883A0EE009688903EFE7096849
:1009C0008901ECE7FFF7E8FEA0EB0901514502D9E8
:1009D0000320BDE8F0872068696800F00C00B0EBE8
:1009E000810FEFD1D8F80010404601F00F01B1425D
:1009F00007D90770006800F00F00B04201D0012055
:100A0000E7E72878400705D52068E96820F4E0503A
:100A1000084320602878000706D52068296920F45B
:100A2000604040EAC100206000F03CF82168084ABC
:100A3000C1F30311515CC840064908600020FFF76C
:100A4000D3FE0020C5E70000003C02400838024009
:100A50002C2D000848000020014800687047000065
:100A6000480000200448054900680968044AC1F3A9
:100A70008221515CC840704748000020083802407D
:100A80003C2D00080448054900680968044AC1F380
:100A90004231515CC840704748000020083802408D
:100AA0003C2D0008154810B5006810F00C021448E1
:100AB00013D04110042A0FD0082A0ED10F4C241F46
:100AC0002268236802F03F025B0207D52068C0F36A
:100AD0008810A0FB010106E0084610BD2168C1F3A3
:100AE0008811A1FB00010023FFF76AFB2168C1F315
:100AF0000141491C4900B0FBF1F010BD083802402B
:100B00000024F4002DE9F84F050076D02878DFF8AE
:100B1000F8B2BE4CC00749D0DBF800105846C1F30C
:100B20008101012908D00068C0F3810002280AD1A0
:100B3000201D0068400206D52068800336D568680D
:100B40000028E2D032E06868B0F5803F10D0B0F500
:100B5000A02F206810D020F480302060206820F47E
:100B6000802020606868A0B1FFF716FE06460CE002
:100B7000206840F48030F4E740F480202060F7E7FC
:100B8000FFF70AFE801B642873D820688003F7D51E
:100B90000CE0FFF701FE064605E000BFFFF7FCFD95
:100BA000801B6428F0D820688003F7D42878DFF809
:100BB000608280074FF000093ED5DBF800105846F0
:100BC00011F00C0F09D00068C0F3810002280BD18E
:100BD0008D48001F0068400206D42068800715D5A4
:100BE000E868012809D111E0E868B8B10120C8F827
:100BF0000000FFF7D1FD064605E002E1FFF7CCFD5E
:100C0000801B0228C0D820688007F7D52068296992
:100C100020F0F80040EAC10020600DE0C8F8009024
:100C2000FFF7BAFD064604E0FFF7B6FD801B022879
:100C30001FD820688007F7D42878000722D5724E85
:100C4000744869696C3671B101210160FFF7A4FD38
:100C5000074604E0FFF7A0FDC01B022809D8306852
:100C60008007F7D50EE0C0F80090FFF795FD074626
:100C700005E083E0FFF790FDC01B02287ED83068B6
:100C80008007F7D42878400768D5DFF87CA10027D3
:100C90000AF1380ADAF80000C0000BD4DAF80010C4
:100CA00041F08051CAF80010DAF80000012700F086
:100CB00080500090584E3068C00510D4306840F421
:100CC00080703060FFF768FD009005E0FFF764FD7D
:100CD0000099401A022851D83068C005F6D54A4E0E
:100CE000A868683601280FD00528306810D020F099
:100CF00001003060306820F004003060A868B8B1AE
:100D0000FFF74AFD00900FE0306840F00100F4E783
:100D100040F004003060F7E7FFF73EFD0099411A0C
:100D200041F28830814264D830688007F4D50EE003
:100D3000FFF732FD009007E0FFF72EFD0099411A02
:100D400041F28830814254D830688007F4D42FB102
:100D5000DAF8001021F08051CAF80010A869C0B379
:100D6000DBF80010C1F3810102294AD0022848466D
:100D700007D0C8F86000FFF70FFD00E039E0054636
:100D80003AE04746C8F86000FFF706FD064604E073
:100D9000FFF702FD801B02282BD820688001F7D4C2
:100DA000D5E907010843A96A1C4A490802EB014139
:100DB0006A6A41EA8211084395F82C1040EA016101
:100DC0001148001F016001203866FFF7E5FC054669
:100DD00005E014E0FFF7E0FC401B022809D820687A
:100DE0008001F7D50BE000BFFFF7D6FC401B0228BF
:100DF00002D90320BDE8F88F20688001F4D40020D8
:100E0000F8E70120F6E70000083802400038024009
:100E100000004742800E4742007000400000FFFF84
:100E20004FF0E0210428086903D020F00400086195
:100E3000704740F00400FAE7704710B5401EB0F16B
:100E4000807F01D3012010BD4FF0E02460610F21AD
:100E5000601701F0CAF90020A0610720206100207E
:100E600010BD10B5FFF7E8FF10BD7047704710B513
:100E700090F83820012A25D0012280F83820CA684D
:100E80008C6822F4407222434C6822F48062224330
:100E90000C6822F4006222430C6922F4805222433F
:100EA0004C6922F4005222438C6922F4804222438E
:100EB00022F40041026800232143516480F8383055
:100EC000002010BD022010BD30B590F83820012A56
:100ED00020D0012280F83820022380F839300368BE
:100EE0005C6824F070045C6003685C680D682C43E7
:100EF0005C6003689C6824F080049C6003689C68C4
:100F000049680C439C6080F83920002180F8381033
:100F1000084630BD022030BD10B5044600680422EA
:100F200001F087FA2068416C41F400414164206877
:100F3000016841F001010160002010BD10B50400FE
:100F400003D094F8390010B107E0012010BD002053
:100F500084F83800204600F00DF8022084F83900AB
:100F6000211D206801F0FAF9012084F839000020E1
:100F700010BD000070B552490368524886B08B42DC
:100F800007D1016841F001010160006800F0010033
:100F900052E04C490124091F0222B3F1804F15D0C1
:100FA000494DAB422AD1086840F002000860086849
:100FB000002200F00200059011461D20FFF782FC80
:100FC0005FF01D00FFF772FC06B070BD086840F0CE
:100FD000010008600868CDE9004200F00100CDE999
:100FE0000440CDE9024269463848FFF7FDFA002285
:100FF00011461C20FFF766FC1C20E3E7344DAB4292
:1010000010D1016841F0020101600068002200F087
:101010000200059011462C20FFF754FC2C20FFF70E
:1010200045FC45E02B4DAB4208D1016841F400314D
:101030000160006800F400300590C5E7264DAB4222
:1010400007D1016841F480210160006800F480202C
:10105000F2E7224E09252248B34216D10B6843F02D
:1010600080030B60096801F08001059181158DE80E
:101070001600CDE903256946FFF7B6FA00221146AE
:101080002C20FFF71FFC2C209CE7164EB3429BD16F
:101090000B6843F480730B60096801F4807105915B
:1010A00071158DE81600CDE903256946FFF79CFA16
:1010B000002211462D20FFF705FC2D2082E70000BD
:1010C000000001404438024000040040000002409B
:1010D000000401400044014000480140001C004061
:1010E00000140240002000400168CA6842F001027A
:1010F000CA600068016841F001010160002070478A
:1011000070B5044690F83800012817D0012584F8FE
:101110003850022084F839002068826822F0770273
:1011200022F47F4282600868502837D00DDC2028E6
:1011300059D005DC88B3102841D151E0022070BDA0
:10114000302853D040283AD13FE060282ED0702874
:101150000BD0B0F5805F03D0B0F5005F2FD110E069
:101160002068816821F0070115E0CB68D1E90121F1
:10117000206801F069F92168886840F0770088608C
:101180001DE0CB68D1E90121206801F05DF92068FC
:10119000816841F48041816011E01EE0CA684968BD
:1011A000206801F019FA5021206806E0CA684968F1
:1011B000206801F065FA6021206801F04FF984F899
:1011C0003950002084F8380070BDCA68496820682A
:1011D00001F002FA40212068EFE700212068ECE7E7
:1011E00010212068E9E720212068E6E73021206807
:1011F000E3E7000070B505462DED048B00682B4930
:101200009FED2B8B9FED2C9B2D4C884222D1287E6D
:1012100001281FD1E068A06000212A4800F0D6FA1A
:10122000E060A168884203D8C1F58031084400E03D
:10123000401AFFF7D7F841EC100B51EC180B53ECA8
:10124000102BFFF760F853EC192BFEF7EAFFFFF7BE
:10125000D6F860611C492868884223D1287E01287D
:1012600020D160682060174800213C3800F0AEFAB9
:1012700060602168884203D8C1F58031084400E0ED
:10128000401AFFF7AFF841EC100B51EC180B53EC80
:10129000102BFFF738F853EC192BFEF7C2FFFFF7BE
:1012A000AEF82061BDEC048B70BD00000020004052
:1012B0000000000080842E4100000000000020405B
:1012C0002400002018020020001C00402DE9F041FD
:1012D000044690F838000D4601283DD0012684F8D8
:1012E0003860022084F83900AAB3042A46D0206866
:1012F000082A55D0D5E90027E968036A23F480530A
:101300000362D0F81CC0036A2CF4407C4CEA072727
:101310004FF6FF7C27F470470CEA013139434FF454
:10132000204723F4204307EA02321A43C1610262D4
:101330002068C16921F44061C1612068C169AA685F
:1013400041EA0221C0F81C1084F83960002084F8BA
:101350003800BDE8F08101E00220FAE7D5E900128B
:10136000EB68206801F04AF92068816921F00C01DE
:10137000816120688169AA6811430FE0D5E90012F4
:10138000EB68206801F08EF92068816921F44061E2
:10139000816120688169AA6841EA02218161D3E7FD
:1013A000D5E9002C2F7B016A21F480710162C169AB
:1013B000036A21F0030141EA0C0121F0F00C390726
:1013C0004FF420674CEA116123F4206307EA0222FC
:1013D0001A43C16102622068C16921F00C01C16138
:1013E0002068C169AA681143ACE710B5040003D0B6
:1013F00094F8390010B107E0012010BD002084F8F6
:101400003800204600F00CF8022084F83900211D35
:10141000206800F0A3FF012084F83900002010BDEF
:10142000704710B50268044631B1042908D0082974
:1014300015D00C2908D116E0D06840F0020002E077
:10144000D06840F00400D0600122206800F0E6FF80
:101450002068016841F001010160002010BDD068E2
:1014600040F00800EFE7D06840F01000EBE770B5FF
:101470000446006801694FF00005C943890715D487
:10148000C168C943890711D4E91E01610120207692
:10149000206880698007204602D0FFF7ABFE04E099
:1014A00000F0D4F8204600F056F92576206801694E
:1014B000C943490717D4C168C943490713D46FF01A
:1014C00004010161022020762068806910F4407FC9
:1014D000204602D0FFF78EFE04E000F0B7F8204669
:1014E00000F039F9257620680169C943090716D447
:1014F000C168C943090712D46FF0080101610420D3
:1015000020762068C0698007204602D0FFF772FE6F
:1015100004E000F09BF8204600F01DF925762068D5
:101520000169C943C90617D4C168C943C90613D4A0
:101530006FF010010161082020762068C06910F466
:10154000407F204602D0FFF755FE04E000F07EF811
:10155000204600F000F9257620680169C943C907D3
:1015600008D1C168C943C90704D1891E0161204659
:1015700000F00EF920680169C943090609D4C16861
:10158000C943090605D46FF0800101612046FFF7C9
:101590006CFC20680169C943490609D4C168C94384
:1015A000490605D46FF040010161204600F030F992
:1015B00020680169C94389060BD4C168C9438906FB
:1015C00007D46FF0200101612046BDE87040FFF7AD
:1015D0004DBC70BD70B5174C0268802502210123F7
:1015E000154886B0A24206D1CDE9005100210291F2
:1015F000CDE9031305E0114E0324B24206D12022A7
:1016000009E06946FEF7F0FF06B070BD0C4E0D48CC
:10161000B24206D14022CDE90021CDE90231049445
:10162000EFE7094EB242EFD10095CDE90113CDE9C4
:101630000314E6E7000001400000024000040140FE
:10164000004401400014024000480140704770B55A
:10165000044690F838000D4601280DD0012684F884
:101660003860022084F8390042B1042A18D0082AD0
:101670002AD00C2A4DD139E0022070BD206800F03C
:10168000F5FE2068816941F0080181612068816967
:1016900021F004018161206881692A69114311E008
:1016A000206800F00FFF2068816941F400618161CA
:1016B0002068816921F480618161206881692A69DB
:1016C00041EA0221816124E0206800F02DFF2068BA
:1016D000C16941F00801C1612068C16921F00401BC
:1016E000C1612068C1692A69114311E0206800F0D6
:1016F0004BFF2068C16941F40061C1612068C16984
:1017000021F48061C1612068C1692A6941EA02212E
:10171000C16184F83960002084F8380070BD10B5CC
:10172000040003D094F8390010B107E0012010BD87
:10173000002084F83800204600F00CF8022084F8DD
:101740003900211D206800F009FE012084F83900CD
:10175000002010BD7047704710B504460068012294
:1017600000F05CFE08492068884202D007498842A0
:1017700003D1416C41F4004141642068016841F0AB
:1017800001010160002010BD000001400004014083
:1017900010B50068094988420ED140F2EE2001469A
:1017A00000F058FC01F0ECF906489FED050A80EDC9
:1017B000000A054880ED000A10BD0000000400404A
:1017C00000000000340000203800002090F838307D
:1017D0000022012B0AD0012380F8383041B10429BE
:1017E00009D008290AD00C290DD10AE0022070473F
:1017F00001684A6B07E001688A6B04E00168CA6B04
:1018000001E001680A6C002180F83810104670472A
:101810007047704770B5026804461068D168536914
:1018200010F00F0F50D003F0010501F4907635430E
:101830005DD0C20705D0CA0503D5E26B42F00102B4
:10184000E263420705D5DA0703D0E26B42F00202F9
:10185000E263820705D5DA0703D0E26B42F00402A7
:10186000E263020705D5DA0703D0E26B42F0080213
:10187000E263E26B002A33D0800604D5880602D5E5
:10188000204600F040FF20684069E16BC0F3801003
:10189000090700D428B3204600F027FF20684169DB
:1018A00049061AD5416921F040014161606BA0B140
:1018B0001B490165606BFEF785FE002810D0606B48
:1018C000016DBDE870400847830610D58B060ED524
:1018D0002046BDE8704000F016BF2046FFF799FF94
:1018E00070BD2046FFF795FF0020E06370BD030642
:1018F00006D50B0604D52046BDE8704001F0A0B81F
:101900004006F3D54806F1D5D168204621F04001C4
:10191000D160202184F8391000F0F9F870BD000082
:10192000DB26000870B5040004D094F839000025C7
:1019300010B106E0012070BD84F83850204600F058
:1019400023F8242084F839002068C16821F400516C
:10195000C160204600F01EFF2068016921F490411B
:1019600001612068416921F02A0141612068C16854
:1019700041F40051C160E563202084F8390084F807
:101980003A00002070BD000000B50068124987B021
:1019900088421FD11148016841F0100101600068C0
:1019A000694600F0100005904FF4C06000900220DE
:1019B0000190012002900320039007200490084822
:1019C000FEF712FE002211462520FEF77BFF2520A0
:1019D000FEF76CFF07B000BD001001404438024024
:1019E0000000024090F83A30202B1DD1D1B1CAB18D
:1019F00090F83830012B17D081628285C285002192
:101A0000C163222280F83A2080F8381001684A69C0
:101A100042F001024A610068C16841F49071C160FE
:101A20000020704701207047022070470068054978
:101A3000884205D10A23062203A1054800F00AB80E
:101A4000704700000010014075617274310A000097
:101A5000540200202DE9F843044690F839001F464F
:101A600016460D46202850D1A5B19EB194F83800F5
:101A700001284AD0012084F838004FF00008C4F84B
:101A80003C80212084F83900FEF786FEA68481463A
:101A9000E68426E00120BDE8F883E08C401EE08467
:101AA000A0684B46B0F5805F4FF000024FF0800118
:101AB0002046009703D000F0F4FFE8B90DE000F0F5
:101AC000F0FFC8B928882168C0F308004860206981
:101AD00008B16D1C05E0AD1C03E0216815F8010B91
:101AE0004860E08C0028D8D14B4600224021204697
:101AF000009700F0D6FF08B10320CCE7202084F83F
:101B0000390084F838800020C5E70220C3E7704719
:101B1000FEE700000D4808B5016841F020010160B2
:101B2000016801F020010091016841F0800101602D
:101B3000016801F080010091016841F0010101603C
:101B4000006800F00100009008BD0000303802403D
:101B500010B51A4888B01849016014210024C0E962
:101B6000011440F2F311C0E90314FFF7E7F920B1C3
:101B700040F21D1112A000F0D8FF1048FFF7CFFD72
:101B800020B14FF491710EA000F0CFFF6020CDE99D
:101B9000000402940022694608480494FFF757FDA8
:101BA00020B140F22B1106A000F0BFFF0348FFF761
:101BB00011FD08B010BD0000004401406401002088
:101BC0002E2E2F5372632F74696D2E630000000058
:101BD00010B51A4888B01849016014210024C0E9E2
:101BE000011440F2F311C0E90314FFF7A7F920B183
:101BF00040F23D1112A000F098FF1048FFF78FFD52
:101C000020B14FF4A1710EA000F08FFF6020CDE94C
:101C1000000402940022694608480494FFF717FD67
:101C200020B140F24B1106A000F07FFF0348FFF700
:101C3000D1FC08B010BD000000480140A001002008
:101C40002E2E2F5372632F74696D2E6300000000D7
:101C50001FB519481749002401605321C0E9011438
:101C60004FF6FF71C0E90314FFF768F920B140F2A5
:101C70005D1112A000F059FF0F48FFF7B6FB20B12D
:101C80004FF4B1710DA000F050FF0120CDE90040EC
:101C90000C20029002200390002269460648FFF7BC
:101CA00015FB002804D040F26B1104A000F03DFFAA
:101CB0001FBD0000001C0040DC0100202E2E2F5311
:101CC00072632F74696D2E63000000001FB5194800
:101CD0001749002401605321C0E901144FF6FF7138
:101CE000C0E90314FFF72AF920B140F27B1112A0DA
:101CF00000F01BFF0F48FFF778FB20B14FF4C071D5
:101D00000DA000F012FF0120CDE900400C20029050
:101D100002200390002269460648FFF7D7FA002800
:101D200004D040F2891104A000F0FFFE1FBD0000A6
:101D300000200040180200202E2E2F5372632F74B3
:101D4000696D2E630000000010B52F4894B02D4936
:101D5000016014210024C0E9011440F2F311C0E92C
:101D600003144461FFF7EAF818B1562127A000F0E8
:101D7000DCFE4FF480500E900EA92348FFF7C0F907
:101D800018B15C2121A000F0D0FE1F48FFF7C7FC6E
:101D900018B161211DA000F0C8FE129412A91A48C2
:101DA0001394FFF791F818B1682118A000F0BDFE58
:101DB0006020CDE900040294039404940594002269
:101DC000694611480694FFF742FC18B174210FA030
:101DD00000F0ABFE0794089409944FF400500A9465
:101DE000CDE90B4007A908480D94FFF740F818B15A
:101DF000802106A000F099FE0348FFF7EBFB14B02A
:101E000010BD000000000140740000202E2E2F5352
:101E100072632F74696D2E630000000010B52248B4
:101E20008AB04FF08041016053210024C0E90114C1
:101E3000611EC0E90314FFF781F818B194211BA0BB
:101E400000F073FE4FF48050049004A91648FFF789
:101E500057F918B19A2115A000F067FE1248FFF754
:101E6000C4FA18B19F2111A000F05FFE089408A9E0
:101E70000D480994FFF728F818B1A6210BA000F02F
:101E800054FE0120CDE90040029400226946064834
:101E90000394FFF71BFA002803D0AF2103A000F042
:101EA00044FE0AB010BD0000B00000202E2E2F53BB
:101EB00072632F74696D2E630000000010B517481F
:101EC00086B01549016053210024C0E901144CF289
:101ED0004F31C0E90314FFF731F818B1C02110A049
:101EE00000F023FE4FF48050009069460B48FFF746
:101EF00007F918B1C6210AA000F017FE049404A93E
:101F000006480594FEF7E0FF002803D0CD2104A089
:101F100000F00BFE06B010BD00040040EC000020F5
:101F20002E2E2F5372632F74696D2E6300000000F4
:101F300010B52F4894B02D49016014210024C0E948
:101F4000011440F2F311C0E903144461FEF7F6FFF7
:101F500018B1E12127A000F0E8FD4FF480500E9069
:101F60000EA92348FFF7CCF818B1E72121A000F013
:101F7000DCFD1F48FFF7D3FB18B1EC211DA000F0DA
:101F8000D4FD129412A91A481394FEF79DFF18B1BC
:101F9000F32118A000F0C9FD6020CDE900040294EF
:101FA0000394049405940022694611480694FFF7AF
:101FB0004EFB18B1FF210FA000F0B7FD0794089465
:101FC00009944FF400500A94CDE90B4007A9084842
:101FD0000D94FEF74CFF20B140F20B1105A000F06C
:101FE000A4FD0348FFF7F6FA14B010BD0004014049
:101FF000280100202E2E2F5372632F74696D2E63DB
:10200000000000000D4810B50B4901604FF4E131AC
:102010004160002181600C22C160C0E9041281612D
:10202000C161FFF77FFC002805D0BDE810404221C8
:1020300003A000F07ABD10BD001001405402002042
:102040002E2E2F5372632F75736172742E630000EE
:10205000FEE700002DE9F04300263546002801DBAD
:10206000012600E04042002901DB012500E0494251
:10207000554A564BD2F81080C2F81480D4681461C7
:1020800093ED000ABDEEC00A10EE103AC31AD360F9
:10209000D069106281464E489769D76190ED000A79
:1020A000A3EB040CBDEEC00A10EE100A00EE10CA3D
:1020B000081A48499061B8EEC00AD1ED000A91EDC6
:1020C000011A60EE800A00EE103AB8EEC00A41EE46
:1020D000000A91ED021A614203EB4101414400EE16
:1020E000101AB2F90210C41BB8EEC00A394B0C33F7
:1020F00041EE000A00EE101AB8EEC00A30EE800A77
:10210000BDEEC00A10EE101A00EE104A09B251805E
:10211000B8EEC00AD3ED000A93ED011A60EE800A12
:1021200000EE100AB8EEC00A41EE000A93ED021A62
:102130007B4200EB430303EB090000EE100AB2F907
:102140000400B8EEC00A41EE000A00EE100AB8EE34
:10215000C00A30EE800ABDEEC00A10EE100A03B2CB
:1021600000209380002900DA5080002B00DA908054
:102170001949B2F90240CB68A34200D25380174BF1
:10218000B2F90440DB68A34200D29380134B144C95
:102190001B682EB1B2F902605E632368586304E0E5
:1021A00058632468B2F9023063630E4B25B10968A5
:1021B000B2F904204A6303E009684863B2F90400F5
:1021C00019684863BDE8F083000000203400002057
:1021D000380000204C00002074000020280100205E
:1021E000A00100206401002070470907090E0028A3
:1021F00006DA00F00F0000F1E02080F8141D7047AF
:1022000000F1E02080F8001470477047704710B567
:10221000FEF7C8FABDE81040FEF723BE30B52448EB
:1022200093B00025016841F080510160006800F022
:10223000805011901F48016841F48041016000689E
:10224000022400F4804011900120009000040190CD
:102250008001CDE9064008AA0420A82182E81300E5
:102260000B906846FEF74EFC00B1FEE70CA90F206C
:1022700081E831004FF4A0500F904FF4805010903F
:1022800005210CA8FEF750FB00B1FEE7FEF7E4FBCA
:102290004FF47A71B0FBF1F0FEF7CFFD0420FEF7AA
:1022A000BFFD00221146501EFEF70CFB13B030BDDF
:1022B00040380240007000401048016841F470014D
:1022C00001600F48016841F0010101600C4A0021E2
:1022D0000832116002680B4B1A400260031D0A4A63
:1022E0001A60026822F48022026005480C30016006
:1022F00002495806803908607047000088ED00E008
:1023000000380240FFFFF6FE103000240148FFF7BE
:10231000AEB80000B00000200148FFF7A8B80000E8
:10232000EC00002010B50448FFF7A1F8BDE810400C
:102330000248FFF79CB80000280100201802002086
:1023400010B50448FFF793F8BDE810400248FFF7C6
:102350008EB8000028010020DC010020F0B50268E2
:10236000234B244D244E254F254C4FF0804C984252
:1023700009D0604507D0A84205D0B04203D0B8428A
:1023800001D0A04204D122F0700E4A6842EA0E0247
:1023900098421BD0604519D0A84217D0B04215D042
:1023A000B84213D0A04211D0164DA8420ED0164DFF
:1023B000A8420BD0154DA84208D0154DA84205D013
:1023C000144DA84202D0144DA84203D122F4407506
:1023D000CA682A4302608A68C2620A6882629842B6
:1023E00001D0A04201D10969016301214161F0BD21
:1023F000000001400004004000080040000C0040C4
:1024000000040140004001400044014000480140F8
:1024100000180040001C00400020004010B50123BF
:10242000046A8B409C430462036A8A40134303623C
:1024300010BD10B50423046A8B409C430462036AF8
:102440008A401343036210BD10B5846842EA032238
:1024500024F47F440A432243826010BD826822F044
:1024600070020A4342F007018160704730B5026A8A
:1024700022F001020262026A436884690D6824F056
:102480007304254322F002048A6822430B4CA042C5
:1024900002D00B4CA0420BD122F00804CA6823F4EE
:1024A000407322434C6922F004021C438B6923438E
:1024B0004360856149684163026230BD00000140AC
:1024C0000004014030B5026A22F010020262026A82
:1024D000436884690D6824F4E64444EA05248D6861
:1024E00022F0200242EA05120D4DA84202D00D4D05
:1024F000A8420ED1CD6822F0800242EA05124D6951
:1025000023F4406343EA85038D6922F0400243EAE5
:1025100085034360846149688163026230BD0000C5
:10252000000001400004014030B5026A22F48072CC
:102530000262036A4268C46923F4007324F07305DD
:102540000C682C438D6843EA05230D4DA84202D048
:102550000C4DA8420ED1CD6823F4006343EA052355
:102560004D6922F4405242EA05128D6923F48063DA
:1025700042EA05124260C4614968C163036230BD2A
:10258000000001400004014030B5026A22F480528C
:102590000262046A4268C3690D6823F4E64343EAB1
:1025A00005238D6824F4005444EA0534084DA842FC
:1025B00002D0084DA84204D14D6922F4804242EA7B
:1025C00085124260C36149680164046230BD000045
:1025D000000001400004014010B5036A046A24F0C1
:1025E00001040462846924F0F00444EA021423F034
:1025F0000A020A438461026210BD000070B5046AD9
:1026000024F0010404628469056A164EB04214D0B5
:10261000B0F1804F11D0144EB0420ED0134EB042E4
:102620000BD0134EB04208D0124EB04205D0124E1D
:10263000B04202D0114EB04203D124F0030414433F
:1026400003E024F0030242F001041A0724F0F0042E
:1026500044EA126225F00A0301F00A01194382617B
:10266000016270BD0000014000040040000800400D
:10267000000C0040000401400040014000180040F0
:1026800010B5036A23F0100303628369046A23F41C
:10269000704343EA023224F0A00343EA011182614D
:1026A000016210BD30B5046A24F01004046284692C
:1026B000056A24F4407444EA022222F470444FF67E
:1026C000FF7202EA03322243A02425F0A00304EAA9
:1026D000011119438261016230BD10B5806B002188
:1026E000C185C184FFF795F810BD0168CA6822F45E
:1026F0009072CA6001684A6922F001024A61202191
:1027000080F83A10704710B590F83A10222901D09D
:10271000022010BD8168B1F5805F11D001690029E8
:1027200001681FD0496801F07F03816A4A1C8262F8
:102730000B70C18D491E0904090CC18518D026E013
:102740000269816A002A0268526805D0D2B20A8002
:10275000816A491C8162ECE7C2F308020A80816A3F
:10276000891CF7E74A68816A4B1C83620A70E0E7BC
:102770000168CA6822F49072CA6001684A6922F04E
:1027800001024A61202180F83A10FFF74FF900203A
:1027900010BD00002DE9F04104460068016921F4F4
:1027A0004052E168114301612168C86849F20C6236
:1027B00090432369A268E5691A4363692B431A436E
:1027C0000243CA602168486920F44072A06910433E
:1027D0004861E1696425B1F5004F9748974A21683F
:1027E0004FF032083FD0914201D081427CD1FEF7B8
:1027F00049F900EBC00101EB001061688900B0FBF2
:10280000F1F6FEF73FF900EBC00101EB0010616843
:102810008900B0FBF1F0B0FBF5F06FF01801484310
:1028200006EB800108EB0110B0FBF5F000F0F006BC
:10283000FEF728F900EBC00101EB00106168890088
:10284000B0FBF1F0B0FBF5F006EB0016FEF71AF95D
:1028500000EBC00101EB001061688900B0FBF1F7EB
:10286000FEF710F9D2E0914201D081423DD1FEF74E
:1028700009F900EBC00101EB001061684900B0FBF1
:10288000F1F0B0FBF5F00601FEF7FCF800EBC0013B
:1028900001EB001061684900B0FBF1F7FEF7F2F8B8
:1028A00000EBC00101EB001061684900B0FBF1F0E2
:1028B000B0FBF5F06FF01801484307EB800108EB1F
:1028C000C100B0FBF5F000F0F80006EB4006FEF7A3
:1028D000D9F800EBC00101EB001061684900B0FBC2
:1028E000F1F7FEF7CFF83CE055E0FEF7BBF800EB60
:1028F000C00101EB001061684900B0FBF1F0B0FBD2
:10290000F5F00601FEF7AEF800EBC00101EB001098
:1029100061684900B0FBF1F7FEF7A4F800EBC001D5
:1029200001EB001061684900B0FBF1F0B0FBF5F07D
:102930006FF01801484307EB800108EBC100B0FBC2
:10294000F5F000F0F80006EB4006FEF78BF800EB20
:10295000C00101EB001061684900B0FBF1F7FEF720
:1029600081F800EBC00101EB001061684900B0FB89
:10297000F1F0B0FBF5F06FF01801484307EB800170
:1029800008EBC100B0FBF5F000F00700216830440F
:102990008860BDE8F081FEF765F800EBC00101EB4F
:1029A000001061688900B0FBF1F6FEF75BF800EB00
:1029B000C00101EB001061688900B0FBF1F0B0FBD1
:1029C000F5F06FF01801484306EB800108EB0110A9
:1029D000B0FBF5F000F0F006FEF744F800EBC001A4
:1029E00001EB001061688900B0FBF1F0B0FBF5F07D
:1029F00006EB0016FEF736F800EBC00101EB001005
:102A000061688900B0FBF1F7FEF72CF800EBC0011C
:102A100001EB001061688900B0FBF1F0B0FBF5F04C
:102A20006FF01801484307EB800108EB0110B0FB81
:102A3000F5F000F00F00A9E700140140001001407C
:102A400090F83910212901D0022070478168B1F532
:102A5000805F016A0BD04A1C0262026809785160EB
:102A6000C18C491E0904090CC1840ED017E00988E5
:102A70000268C1F30801516001690029016A02D0AE
:102A8000491C0162ECE7891CFBE70168CA6822F077
:102A90008002CA600068C16841F04001C160002046
:102AA00070472DE9F041984617460E460446069DAC
:102AB0001DE0681C1BD02DB1FDF76EFEA0EB0800D9
:102AC000A84214D92068C16821F4D071C16020687F
:102AD000416921F001014161202084F8390084F826
:102AE0003A00002084F838000320BDE8F081206817
:102AF000006836EA000004D00020B842D9D0002097
:102B0000F3E70120F9E7000010B50548FEF782FE63
:102B1000BDE81040012203490148FEF763BF0000F1
:102B20005402002000000020FEE7FEE702E008C893
:102B3000121F08C1002AFAD170477047002001E037
:102B400001C1121F002AFBD17047000070B5147834
:102B500023180C2B11D8094DCBB2012802D0022822
:102B600008D101E02B5505E00E0A0449491C6654C2
:102B700011786B5411780844107070BD6400002007
:102B800038B500208DF800006A4603210120FFF7C8
:102B9000DDFF6A46FC210120FFF7D8FF1A486A468C
:102BA00090ED000ABCEEC00A10EE100A81B20220BD
:102BB000FFF7CCFF15486A4690ED000ABCEEC00A4C
:102BC00010EE100A81B20220FFF7C0FF104C6A46D7
:102BD0000220B4F90210FFF7B9FF6A46B4F90410F5
:102BE0000220FFF7B3FF6A46FC210120FFF7AEFF8A
:102BF0006A4603210120FFF7A9FF64230C2205493F
:102C00000548FEF727FF38BD3400002038000020BB
:102C100000000020640000205402002035489FED91
:102C2000340AF6EE080A80ED000A9FED330A80EDC3
:102C3000010A9FED320A80ED020A0C30C0ED000A55
:102C4000DFED2F0AC0ED010A80ED020AFDF7B2FDAB
:102C5000FFF7E4FAFEF75EFFFFF7D4F9FFF774F829
:102C6000FFF72CF9FEF7F4FFFFF730F8FFF760F9F4
:102C7000FEF76EFFFEF7ACFFFFF7D0F80A23042241
:102C800020492148FEF7E6FE00212048FEF764FDBA
:102C900000211F48FEF760FD00211E48FEF73CF9A9
:102CA00000211D48FEF738F91949002009684863DA
:102CB000164909684863184909684863154909684D
:102CC000486310490122891F0F48FEF78BFE134805
:102CD000FEF70AFA00211248FEF7A3FB0021114873
:102CE000FEF79FFB00211048FEF79BFBFEE700006C
:102CF0009318443F4C0000207B14AE3E0AD7A33B00
:102D00009A99993E06000020540200206401002098
:102D1000A00100207400002028010020EC00002009
:102D2000DC01002018020020B0000020000000009C
:102D3000000000000102030406070809000000006B
:102D400001020304642D0008000000204C00000074
:102D50002C2B0008B02D00084C0000204C06000071
:102D60003C2B000800000000000063617364000059
:102D70000000000000000000000000000000000053
:102D80000000000000000000000000000000000043
:102D90000000000000000000000000000000000033
:102DA0000100000010000000000000000024F400FA
:040000050800018965
:00000001FF
