:020000040800F2
:10000000600600209D01000843230008011E00082F
:1000100041230008E5070008A52C000800000000A7
:10002000000000000000000000000000672300083E
:10003000E7070008000000006523000869230008A6
:10004000B7010008B7010008B7010008B7010008B0
:10005000B7010008B7010008B7010008B7010008A0
:10006000B7010008B7010008B7010008B701000890
:10007000B7010008B7010008B7010008B701000880
:10008000B7010008B7010008B7010008B701000870
:10009000B7010008B7010008B7010008B701000860
:1000A000B70100086D240008B7010008B701000877
:1000B0008924000895240008B7010008B70100084A
:1000C000B7010008B7010008B7010008B701000830
:1000D000B7010008852C0008B7010008B701000827
:1000E000B7010008B7010008B7010008B701000810
:1000F000BD240008A1240008B7010008B7010008CA
:10010000B7010008B7010008B7010008B7010008EF
:10011000B7010008B7010008B7010008B7010008DF
:10012000B7010008B7010008B7010008B7010008CF
:10013000B7010008B7010008B7010008B7010008BF
:10014000B7010008B7010008B7010008B7010008AF
:10015000B7010008B7010008B7010008B70100089F
:10016000B7010008B7010008B7010008B70100088F
:10017000B7010008B7010008B7010008000000003F
:10018000B7010008B7010008DFF80CD000F006FB4B
:1001900000480047B5350008600600200648804743
:1001A00006480047FEE7FEE7FEE7FEE7FEE7FEE75C
:1001B000FEE7FEE7FEE7FEE71924000889010008D4
:1001C0002DE9F05F0546002092469B46884606468C
:1001D000814640241BE0284641464746224600F01F
:1001E000F0F853465A46C01A914110D311461846AA
:1001F000224600F0D7F82D1A67EB01084F46224639
:100200000120002100F0CEF817EB00094E41201E1E
:10021000A4F10104DFDC484631462A464346BDE8E6
:10022000F09F2DE9F04D81EA030404F0004B21F02A
:10023000004514464FF0000A23F0004150EA050241
:1002400020D054EA01021DD0C5F30A570246C5F377
:100250001303C1F31300C1F30A5640F4801543F4AD
:100260008013A7EB0608101BD64608F2FD3873EB87
:10027000050002D308F1010801E092185B41B8F1D2
:10028000000F03DA00200146BDE8F08D00204FF496
:100290008011064684460EE0171B73EB050705D355
:1002A000121B63EB050306434CEA010C49084FEAB5
:1002B000300092185B4150EA0107EDD152EA030089
:1002C00012D082EA040083EA0501084305D0101B1E
:1002D000AB4106D20122002306E000224FF000438A
:1002E00002E06FF0010253101AEB06004CEB0851CC
:1002F00010EB0A0041EB0B01BDE8F04D00F0A8B88F
:100300000EB540F2334102910021CDE900110A46B9
:100310000B4600F0ACF803B000BD00F0004230F036
:1003200000400AD0C10D01F56071C0F3160042EA29
:100330000151C20840071143704700200146704731
:1003400001F0004330B421F0004150EA010206D030
:100350000A0DA2F56072C1F31301002A02DC30BC61
:1003600000207047440F44EAC104C100E01830BCCB
:1003700000EBC25000F035B830B50B460146002006
:100380002022012409E021FA02F59D4205D303FA57
:1003900002F5491B04FA02F52844151EA2F10102D8
:1003A000F1DC30BD202A04DB203A00FA02F1002003
:1003B00070479140C2F1200320FA03F319439040A3
:1003C0007047202A04DB203A21FA02F0002170470E
:1003D00021FA02F3D040C2F12002914008431946AD
:1003E00070470029A8BF7047401C490008BF20F093
:1003F0000100704710B4B0FA80FC00FA0CF050EA2B
:10040000010404BF10BC704749B1CCF1200421FAAB
:1004100004F411FA0CF118BF012121430843A3EBA6
:100420000C01CB1D4FEA00614FEA102042BF0020B3
:1004300010BC704700EBC35010440029A4BF10BC8F
:100440007047401C490008BF20F0010010BC7047F5
:1004500010B5141E73F1000408DA401C41F10001CC
:1004600092185B411A4301D120F0010010BD2DE923
:10047000F04D92469B4611B1B1FA81F202E0B0FA1A
:1004800080F220329046FFF78DFF04460F4640EA87
:100490000A0041EA0B0153465A46084313D011465D
:1004A00053EA010019D0C8F140025046FFF789FF16
:1004B00005460E46504659464246FFF773FF08432D
:1004C00005D0012004E020463946BDE8F08D00202B
:1004D000054346EAE0762C4337430A986305E40A6D
:1004E000A0EB08000022FD0A44EA47540A3002D576
:1004F00000200146E9E7010510196941DDE90845D9
:1005000000196941BDE8F04DA2E72DE9FE4F804694
:1005100081EA0300C00F0C46009021F0004123F057
:100520000045B8EB0200A94105D24046214690465D
:100530001C460B46024623F00040104347D0270DCF
:10054000C7F30A00C3F30A510290401A01904028F1
:100550006BDAC3F3130040F4801B0098924620B17D
:100560000023D2EB030A63EB0B0B01985946C0F151
:1005700040025046FFF716FF06460D4650465946C4
:10058000019A00F01DF910EB08006141002487EA90
:10059000115284EAE7731A4340D0009A62B3019A79
:1005A000012A4FEA075215DC001B61EB02014FF0F4
:1005B000004202EA0752CDE90042001C41F58011D9
:1005C00032462B46FFF753FF03B0BDE8F08F40469D
:1005D0002146F9E7001B61EB0201001C41F5801385
:1005E00000185B412018A2F5001747EB030140EA11
:1005F000D570B6196D4111E06D084FEA360645EA2F
:10060000C0754FEA0752001B61EB0201001C41F567
:10061000801149084FEA30000019514132462B46FB
:1006200003B0BDE8F04FFFF713BF00980122400070
:100630000023D0EB020263EBE073009821464FEAFF
:10064000E074B8EB000061EB0401E9E783F00043DC
:100650005BE781F0004158E72DE9FE4F81EA030492
:1006600004F0004421F0004100944FF0000B23F00F
:10067000004350EA01045ED052EA03045BD0C3F3A6
:100680000A54C1F30A552C44A4F2F3340194A0FB9C
:100690000254C1F3130141F48011C3F3130343F473
:1006A000801301FB024400FB034E840A970A44EACC
:1006B000815447EA8357A4FB076802958D0A05FB1E
:1006C00007854FEA932C04FB0C542705029D4FEA43
:1006D000065847EA1637B5EB08056EEB070C870E90
:1006E000920E47EA811742EA8312A7FB0201B6EB9A
:1006F0000B0164EB00042B0D43EA0C335E1844EB52
:100700001C50DA465146E7FB0201C5F313044FEAD9
:100710000B3343EA14534FEA0432019C43EA0603C5
:10072000A4F10C040294009CCDE900B4FFF79FFEF5
:1007300003B0BDE8F08F00200146F9E7C1F30A528B
:10074000C1F3130140F2FF3341F480119A4202DAFF
:1007500000200146704740F233439A42A2F23342EE
:1007600002DC5242FFF72DBEFFF71CBE30B5041E5F
:1007700071F1000404DB4FF00044404264EB0101DE
:10078000141E73F1000405DB1C464FF00043524277
:1007900063EB0403994208BF904230BD064C074DFD
:1007A00006E0E06840F0010394E807009847103441
:1007B000AC42F6D3FFF7ECFCA0360008C0360008C8
:1007C000202A06DBCB17203A41FA02F043EAE07315
:1007D00006E041FA02F3D040C2F120029140084302
:1007E00019467047FEE7704790F83510022903D08C
:1007F0008021416501207047052180F8351000688F
:10080000016821F001010160002070472DE9F84FD7
:10081000DFF87CB100224FF001084FF0030A4FF0DF
:100820000F090BF1040E00BF0B6808FA02F4234015
:10083000A3426ED14D68022D01D0122D0ED1D508E4
:1008400000EB850CDCF820505607F70E09FA07F686
:10085000B5430E69BE402E43CCF8206006685500B3
:100860000F790AFA05FC07F0030726EA0C06AF40E9
:10087000374307604E68012E05D0022E03D0112E9B
:1008800001D0122E0ED18668CF6826EA0C06AF4042
:10089000374387604668A6430C79C4F3001494403C
:1008A00034434460C6688C6826EA0C06AC40344386
:1008B000C4604C68E40065D5364C256845F4804535
:1008C0002560246822F0030504F480440094324C2F
:1008D0002E19D6F8084895072F0F09FA07F5AC43EB
:1008E0002E4DA84201D1002524E02D4DA84201D172
:1008F00001251FE02B4DA84201D102251AE02A4D07
:10090000A84201D1032515E0284DA84202D10425B3
:1009100010E037E0264DA84201D105250AE0254D1B
:10092000A84201D1062505E0234DA84201D10725A3
:1009300000E00825BD402543C6F80858DBF8004014
:100940005D464E689C43F60300D51C432C60DEF8E0
:10095000004075464E689C43B60300D51C432C608E
:100960000B4D08352C684E689C43F60200D51C439D
:100970002C60074D0C352C684E689C43B60200D5A0
:100980001C432C60521C102AFFF44EAFBDE8F88FB8
:10099000003C014044380240003001400000024069
:1009A0000004024000080240000C02400010024017
:1009B0000014024000180240001C024001488068F8
:1009C0007047000028000020024881680278114426
:1009D00081607047280000200B4810B5016841F481
:1009E00000710160016841F480610160016841F4B7
:1009F00080710160032000F097F8002000F006F8F5
:100A000000F024F8002010BD003C024070B50D4DF0
:100A100004464FF47A712878B1FBF0F00A4909686E
:100A2000B1FBF0F000F01BFB48B9102C07D20022FC
:100A30002146501E00F058F800206C6070BD012067
:100A400070BD000028000020340000201F4808B5B9
:100A5000016841F480410160006800F4804000902A
:100A60001A48001F016841F080510160006800F0E1
:100A700080500090032000F057F8002211466FF0DC
:100A80000B0000F031F8002211466FF00A0000F070
:100A90002BF8002211466FF0090000F025F8002223
:100AA0001146501F00F020F800221146101F00F0E0
:100AB0001BF800221146901E00F016F80022BDE837
:100AC00008401146501E00F00FB8000044380240A4
:100AD00000F01F02012191404009800000F1E02058
:100AE000C0F8001170470000F0B40E4B1B680C46B4
:100AF000C3F30223C3F10705042D00D90425191DF2
:100B0000072901D2002300E0DB1E012606FA05F1C9
:100B1000491E214099409E40761E16403143F0BC4C
:100B200001F010BC0CED00E0064900F00702086877
:100B30004FF6FF03184040EA0220034A10430860C2
:100B4000704700000CED00E00000FA052DE9F047C9
:100B50000E46050065D0DFF81481D8F80000F7B222
:100B600000F00F00B04207D288F80070D8F80000FB
:100B700000F00F00B04254D128683D4C810712D5D7
:100B8000400703D5206840F4E05020602878000733
:100B900003D5206840F4604020602068A96820F0F8
:100BA000F000084320602878C0072DD030496868DD
:100BB0000839012812D0022813D0032811D009685F
:100BC000890700292DDA216821F003010143216002
:100BD000FFF7F4FE814641F2883A0EE00968890386
:100BE000EFE709688901ECE7FFF7E8FEA0EB0901F0
:100BF000514502D90320BDE8F0872068696800F0FC
:100C00000C00B0EB810FEFD1D8F80010404601F096
:100C10000F01B14207D90770006800F00F00B04221
:100C200001D00120E7E72878400705D52068E9686A
:100C300020F4E050084320602878000706D520689B
:100C4000296920F4604040EAC100206000F03CF8CF
:100C50002168084AC1F30311515CC8400649086085
:100C60000020FFF7D3FE0020C5E70000003C024053
:100C70000838024088360008340000200148006827
:100C800070470000340000200448054900680968E6
:100C9000044AC1F38221515CC840704734000020EF
:100CA0000838024098360008044805490068096879
:100CB000044AC1F34231515CC840704734000020FF
:100CC0000838024098360008154810B5006810F042
:100CD0000C02144813D04110042A0FD0082A0ED158
:100CE0000F4C241F2268236802F03F025B0207D5E5
:100CF0002068C0F38810A0FB010106E0084610BD83
:100D00002168C1F38811A1FB00010023FFF758FA05
:100D10002168C1F30141491C4900B0FBF1F010BD4D
:100D2000083802400024F4002DE9F84F050076D081
:100D30002878DFF8F8B2BE4CC00749D0DBF80010C5
:100D40005846C1F38101012908D00068C0F3810031
:100D500002280AD1201D0068400206D520688003C1
:100D600036D568680028E2D032E06868B0F5803F88
:100D700010D0B0F5A02F206810D020F48030206073
:100D8000206820F4802020606868A0B1FFF716FE7C
:100D900006460CE0206840F48030F4E740F4802000
:100DA0002060F7E7FFF70AFE801B642873D82068ED
:100DB0008003F7D50CE0FFF701FE064605E000BF13
:100DC000FFF7FCFD801B6428F0D820688003F7D46F
:100DD0002878DFF8608280074FF000093ED5DBF805
:100DE0000010584611F00C0F09D00068C0F38100C4
:100DF00002280BD18D48001F0068400206D42068ED
:100E0000800715D5E868012809D111E0E868B8B174
:100E10000120C8F80000FFF7D1FD064605E002E119
:100E2000FFF7CCFD801B0228C0D820688007F7D5CB
:100E30002068296920F0F80040EAC10020600DE038
:100E4000C8F80090FFF7BAFD064604E0FFF7B6FDCC
:100E5000801B02281FD820688007F7D42878000755
:100E600022D5724E744869696C3671B101210160F6
:100E7000FFF7A4FD074604E0FFF7A0FDC01B022812
:100E800009D830688007F7D50EE0C0F80090FFF76A
:100E900095FD074605E083E0FFF790FDC01B0228A3
:100EA0007ED830688007F7D42878400768D5DFF807
:100EB0007CA100270AF1380ADAF80000C0000BD440
:100EC000DAF8001041F08051CAF80010DAF800009A
:100ED000012700F080500090584E3068C00510D4B3
:100EE000306840F480703060FFF768FD009005E0E6
:100EF000FFF764FD0099401A022851D83068C005F8
:100F0000F6D54A4EA868683601280FD00528306803
:100F100010D020F001003060306820F00400306014
:100F2000A868B8B1FFF74AFD00900FE0306840F0C4
:100F30000100F4E740F004003060F7E7FFF73EFD02
:100F40000099411A41F28830814264D830688007A4
:100F5000F4D50EE0FFF732FD009007E0FFF72EFD1D
:100F60000099411A41F28830814254D83068800794
:100F7000F4D42FB1DAF8001021F08051CAF8001033
:100F8000A869C0B3DBF80010C1F3810102294AD07F
:100F90000228484607D0C8F86000FFF70FFD00E0C0
:100FA00039E005463AE04746C8F86000FFF706FD1D
:100FB000064604E0FFF702FD801B02282BD82068BC
:100FC0008001F7D4D5E907010843A96A1C4A4908FA
:100FD00002EB01416A6A41EA8211084395F82C103C
:100FE00040EA01611148001F016001203866FFF7E7
:100FF000E5FC054605E014E0FFF7E0FC401B022895
:1010000009D820688001F7D50BE000BFFFF7D6FCB8
:10101000401B022802D90320BDE8F88F2068800118
:10102000F4D40020F8E70120F6E700000838024079
:101030000038024000004742800E474200700040E6
:101040000000FFFF4FF0E0210428086903D020F0E2
:1010500004000861704740F00400FAE7704710B5DB
:10106000401EB0F1807F01D3012010BD4FF0E0247D
:1010700060610F21601701F065F90020A061072071
:101080002061002010BD10B5FFF7E8FF10BD7047CC
:10109000704710B590F83820012A25D0012280F839
:1010A0003820CA688C6822F4407222434C6822F4CB
:1010B000806222430C6822F4006222430C6922F40D
:1010C000805222434C6922F4005222438C6922F45C
:1010D0008042224322F400410268002321435164EC
:1010E00080F83830002010BD022010BD30B590F8D7
:1010F0003820012A20D0012280F83820022380F8ED
:10110000393003685C6824F070045C6003685C68D4
:101110000D682C435C6003689C6824F080049C602C
:1011200003689C6849680C439C6080F83920002162
:1011300080F83810084630BD022030BD10B5044696
:101140000068042201F033FA2068416C41F4004148
:1011500041642068016841F001010160002010BD78
:1011600010B5040003D094F8390010B107E0012055
:1011700010BD002084F83800204600F00DF8022051
:1011800084F83900211D206801F0A6F9012084F8B7
:101190003900002010BD000070B550490268504869
:1011A00086B08A4207D1016841F001010160006800
:1011B00000F0010046E04A49091FB2F1804F11D00A
:1011C000484B9A4220D1086840F002000860086845
:1011D000002200F00200059011461D20FFF784FC5C
:1011E0001D200DE0086840F001000860086800223A
:1011F00000F00100059011461C20FFF775FC1C2033
:10120000FFF766FC06B070BD374B9A4210D10168FB
:1012100041F0020101600068002200F00200059028
:1012200011462C20FFF760FC2C20FFF751FC4EE00C
:101230002E4B9A420ED1016841F4003101600068E2
:1012400000F400300022059011461920FFF74CFCF5
:101250001920D5E7264B9A4208D1016841F4802134
:101260000160006800F480200590CBE7214E022346
:10127000012409252048B24216D10A6842F08002B2
:101280000A60096801F08001059181158DE81A0056
:10129000CDE903356946FFF7B9FA002211462C2043
:1012A000FFF722FC2C20ABE7144EB242AAD10A6809
:1012B00042F480720A60096801F480710591711529
:1012C0008DE81A00CDE903356946FFF79FFA002241
:1012D00011462D20FFF708FC2D2091E7000001406A
:1012E0004438024000040040000401400044014032
:1012F00000480140001C0040001402400020004053
:101300000168CA6842F00102CA600068016841F0E1
:10131000010101600020704770B5044690F8380064
:10132000012817D0012584F83850022084F83900AC
:101330002068826822F0770222F47F428260086887
:10134000502837D00DDC202859D005DC88B3102870
:1013500041D151E0022070BD302853D040283AD10D
:101360003FE060282ED070280BD0B0F5805F03D00E
:10137000B0F5005F2FD110E02068816821F00701EF
:1013800015E0CB68D1E90121206801F01BF9216843
:10139000886840F0770088601DE0CB68D1E90121C2
:1013A000206801F00FF92068816841F48041816074
:1013B00011E01EE0CA684968206801F0CBF95021AD
:1013C000206806E0CA684968206801F017FA6021C1
:1013D000206801F001F984F83950002084F83800C1
:1013E00070BDCA684968206801F0B4F940212068DE
:1013F000EFE700212068ECE710212068E9E72021D1
:101400002068E6E730212068E3E7000070B52DEDA5
:10141000028B0546006843499FED438B444C88424C
:1014200027D1287E012874D16068206000214148BE
:1014300000F044FB60602168884203D8C1F5803128
:10144000084400E0401AFEF75BFF41EC100B51EC42
:10145000180B53EC102BFEF7E4FEFEF771FF00EEC5
:10146000100A35A084ED040ABDEEC00A10EE101A71
:101470002AE0364988422AD1287E012849D1E068ED
:10148000A0602C4800213C3000F018FBE060A1680F
:10149000884203D8C1F58031084400E0401AFEF7C5
:1014A0002FFF41EC100B51EC180B53EC102BFEF7F7
:1014B000B8FEFEF745FF00EE100A25A084ED050AF0
:1014C000BDEEC00A10EE101A01F0EEFB21E0B0F103
:1014D000804F1ED1287E01281BD1E068A06000212A
:1014E000284600F0EBFAE060A168884203D1C1F51C
:1014F0008031084400E0401AFEF702FF41EC100B77
:1015000051EC180B53EC102BFEF78BFEFEF718FF77
:1015100060612846BDEC028B0021BDE8704000F000
:10152000CCB80000001C00400000000080842E4168
:101530000C000020A40100206874696D31335F66DF
:101540007265713A2025640A000000000020004006
:101550006874696D31345F667265713A2025640A7A
:10156000000000002DE9F041044690F838000D46D7
:1015700001283DD0012684F83860022084F8390023
:10158000AAB3042A46D02068082A55D0D5E90027F6
:10159000E968036A23F480530362D0F81CC0036A2D
:1015A0002CF4407C4CEA07274FF6FF7C27F4704769
:1015B0000CEA013139434FF4204723F4204307EA72
:1015C00002321A43C16102622068C16921F440619C
:1015D000C1612068C169AA6841EA0221C0F81C10F3
:1015E00084F83960002084F83800BDE8F08101E01B
:1015F0000220FAE7D5E90012EB68206801F0BCF898
:101600002068816921F00C01816120688169AA68E4
:1016100011430FE0D5E90012EB68206801F000F9F2
:101620002068816921F44061816120688169AA682C
:1016300041EA02218161D3E7D5E9002C2F7B016AC1
:1016400021F480710162C169036A21F0030141EA5A
:101650000C0121F0F00C39074FF420674CEA1161BE
:1016600023F4206307EA02221A43C1610262206860
:10167000C16921F00C01C1612068C169AA681143E8
:10168000ACE710B5040003D094F8390010B107E0BE
:10169000012010BD002084F83800204600F00CF82E
:1016A000022084F83900211D206800F015FF012078
:1016B00084F83900002010BD704710B50268044658
:1016C00031B1042908D0082915D00C2908D116E019
:1016D000D06840F0020002E0D06840F00400D06022
:1016E0000122206800F058FF2068016841F00101E4
:1016F0000160002010BDD06840F00800EFE7D0681E
:1017000040F01000EBE770B50446006801694FF047
:101710000005C943890715D4C168C943890711D495
:10172000E91E01610120207620688069800720463B
:1017300002D0FFF76BFE04E000F0DEF8204600F078
:1017400060F9257620680169C943490717D4C16843
:10175000C943490713D46FF00401016102202076C8
:101760002068806910F4407F204602D0FFF74EFECB
:1017700004E000F0C1F8204600F043F92576206827
:101780000169C943090716D4C168C943090712D4BE
:101790006FF008010161042020762068C06980078D
:1017A000204602D0FFF732FE04E000F0A5F8204604
:1017B00000F027F9257620680169C943C90617D4C6
:1017C000C168C943C90613D46FF010010161082034
:1017D00020762068C06910F4407F204602D0FFF7D1
:1017E00015FE04E000F088F8204600F00AF925769E
:1017F00020680169C943C90708D1C168C943C9073D
:1018000004D1891E0161204600F018F920680169A1
:10181000C943090609D4C168C943090605D46FF054
:10182000800101612046FFF732FC20680169C9434D
:10183000490609D4C168C943490605D46FF040017F
:101840000161204600F05CF920680169C9438906FE
:101850000BD4C168C943890607D46FF02001016128
:101860002046BDE87040FFF713BC70BDF0B51B4EBD
:1018700003680024802502210122194885B0B34263
:1018800006D10095CDE90114CDE90342694609E08E
:10189000144F4026BB4209D101AB009683E81600E5
:1018A000049118E0FEF7B2FF05B0F0BD0E4F03241F
:1018B000BB4202D12023009309E00C4F0C48BB42ED
:1018C00001D1009603E00B4EB342EDD10095CDE976
:1018D0000112CDE903146946E4E70000000001406D
:1018E00000000240000400400004014000440140A8
:1018F0000014024000480140704770B5044690F85B
:1019000038000D4601280DD0012684F838600220E9
:1019100084F8390042B1042A18D0082A2AD00C2AA7
:101920004DD139E0022070BD206800F05DFE2068D6
:10193000816941F0080181612068816921F0040119
:101940008161206881692A69114311E0206800F0F3
:1019500077FE2068816941F40061816120688169B6
:1019600021F480618161206881692A6941EA02214C
:10197000816124E0206800F095FE2068C16941F093
:101980000801C1612068C16921F00401C1612068BA
:10199000C1692A69114311E0206800F0B3FE206894
:1019A000C16941F40061C1612068C16921F48061AD
:1019B000C1612068C1692A6941EA0221C16184F8D4
:1019C0003960002084F8380070BD10B5040003D0E1
:1019D00094F8390010B107E0012010BD002084F810
:1019E0003800204600F00CF8022084F83900211D50
:1019F000206800F071FD012084F83900002010BD3E
:101A00007047704710B504460068012200F0C4FD1D
:101A100008492068884202D00749884203D1416CB6
:101A200041F4004141642068016841F00101016016
:101A3000002010BD000001400004014010B5006806
:101A40001249884220D1124CA068142801DB0020E2
:101A5000A060401CA0600A2306220EA10F4800F0DF
:101A600071F9A068642148430D49096848630D482D
:101A70000068FEF752FC41EC100BBDE8104053EC3F
:101A8000102B09A001F010B910BD000000000140AA
:101A90000000002074696D310A0000001C02002063
:101AA000B40000202400002050574D5F4475747925
:101AB00020697320252E34660A00000090F8383023
:101AC0000022012B0AD0012380F8383041B10429CB
:101AD00009D008290AD00C290DD10AE0022070474C
:101AE00001684A6B07E001688A6B04E00168CA6B11
:101AF00001E001680A6C002180F838101046704738
:101B00007047704770B5026804461068D168536921
:101B100010F00F0F50D003F0010501F4907635431B
:101B20005DD0C20705D0CA0503D5E26B42F00102C1
:101B3000E263420705D5DA0703D0E26B42F0020206
:101B4000E263820705D5DA0703D0E26B42F00402B4
:101B5000E263020705D5DA0703D0E26B42F0080220
:101B6000E263E26B002A33D0800604D5880602D5F2
:101B7000204600F086FE20684069E16BC0F38010CB
:101B8000090700D428B3204600F06DFE20684169A3
:101B900049061AD5416921F040014161606BA0B14D
:101BA0001B490165606BFEF71FFE002810D0606BBB
:101BB000016DBDE870400847830610D58B060ED531
:101BC0002046BDE8704000F05CBE2046FFF799FF5C
:101BD00070BD2046FFF795FF0020E06370BD03064F
:101BE00006D50B0604D52046BDE8704000F0E6BFE0
:101BF0004006F3D54806F1D5D168204621F04001D2
:101C0000D160202184F8391000F0F9F870BD00008F
:101C10005728000870B5040004D094F83900002556
:101C200010B106E0012070BD84F83850204600F065
:101C300023F8242084F839002068C16821F4005179
:101C4000C160204600F064FE2068016921F49041E3
:101C500001612068416921F02A0141612068C16861
:101C600041F40051C160E563202084F8390084F814
:101C70003A00002070BD000000B50068124987B02E
:101C800088421FD11148016841F0100101600068CD
:101C9000694600F0100005904FF4C06000900220EB
:101CA000019001200290032003900720049008482F
:101CB000FEF7ACFD002211462520FEF715FF25207A
:101CC000FEF706FF07B000BD001001404438024097
:101CD0000000024090F83A30202B1DD1D1B1CAB19A
:101CE00090F83830012B17D081628285C28500219F
:101CF000C163222280F83A2080F8381001684A69CE
:101D000042F001024A610068C16841F49071C1600B
:101D10000020704701207047022070470068054985
:101D2000884205D10A23062203A1054800F00AB81B
:101D3000704700000010014075617274310A0000A4
:101D40001C0200202DE9F843044690F839001F4694
:101D500016460D46202850D1A5B19EB194F8380002
:101D600001284AD0012084F838004FF00008C4F858
:101D70003C80212084F83900FEF720FEA6848146AD
:101D8000E68426E00120BDE8F883E08C401EE08474
:101D9000A0684B46B0F5805F4FF000024FF0800125
:101DA0002046009703D000F03AFFE8B90DE000F0BC
:101DB00036FFC8B928882168C0F308004860206948
:101DC00008B16D1C05E0AD1C03E0216815F8010B9E
:101DD0004860E08C0028D8D14B46002240212046A4
:101DE000009700F01CFF08B10320CCE7202084F806
:101DF000390084F838800020C5E70220C3E7704727
:101E0000FEE700000D4808B5016841F020010160BF
:101E1000016801F020010091016841F0800101603A
:101E2000016801F080010091016841F00101016049
:101E3000006800F00100009008BD0000303802404A
:101E400010B51A4888B01849016053210024C0E930
:101E5000011440F2CF71C0E90314FFF781F920B1FA
:101E600040F21F1112A000F01EFF1048FFF7ADFD59
:101E700020B14FF492710EA000F015FF6020CDE963
:101E8000000402940022694608480494FFF735FDD7
:101E900020B140F22D1106A000F005FF0348FFF726
:101EA000E5FC08B010BD0000004401402C010020FA
:101EB0002E2E2F5372632F74696D2E630000000065
:101EC00010B51A4888B01849016053210024C0E9B0
:101ED000011440F2CF71C0E90314FFF741F920B1BA
:101EE00040F23F1112A000F0DEFE1048FFF76DFD3A
:101EF00020B14FF4A2710EA000F0D5FE6020CDE914
:101F0000000402940022694608480494FFF7F5FC97
:101F100020B140F24D1106A000F0C5FE0348FFF7C6
:101F2000A5FC08B010BD0000004801406801002079
:101F30002E2E2F5372632F74696D2E6300000000E4
:101F40001FB518481649002401605321C0E9011447
:101F50004FF6FF71C0E90314FFF702F920B140F218
:101F60005F1111A000F09FFE0E48FFF78AFB20B121
:101F70004FF4B2710CA000F096FE0120CDE90040B4
:101F800002940022694607480394FFF7EBFA002801
:101F900004D040F26D1104A000F085FE1FBD0000CA
:101FA000001C0040A40100202E2E2F5372632F74BA
:101FB000696D2E63000000001FB518481649002403
:101FC00001605321C0E901144FF6FF71C0E9031409
:101FD000FFF7C6F820B140F27D1111A000F063FEBA
:101FE0000E48FFF74EFB20B14FF4C1710CA000F07A
:101FF0005AFE0120CDE900400294002269460748BC
:102000000394FFF7AFFA002804D040F28B1104A02C
:1020100000F049FE1FBD000000200040E00100204C
:102020002E2E2F5372632F74696D2E6300000000F3
:1020300010B52F4894B02D49016053210024C0E908
:10204000011440F2CF71C0E903144461FFF788F82E
:1020500018B1562127A000F026FE4FF480500E90B4
:102060000EA92348FFF758F918B15C2121A000F010
:102070001AFE1F48FFF7A9FC18B161211DA000F04E
:1020800012FE129412A91A481394FFF72FF818B1F0
:10209000682118A000F007FE6020CDE9000402943A
:1020A0000394049405940022694611480694FFF7AE
:1020B00024FC18B174210FA000F0F5FD07940894DA
:1020C00009944FF400500A94CDE90B4007A9084841
:1020D0000D94FEF7DEFF18B1802106A000F0E3FDAD
:1020E0000348FFF7C3FB14B010BD0000000001401F
:1020F0003C0000202E2E2F5372632F74696D2E63C7
:102100000000000010B5164886B04FF08041016015
:1021100053210024C0E90114611EC0E90314FFF734
:102120001FF818B193210FA000F0BDFD4FF48050AF
:10213000009069460A48FFF7EFF818B1992109A005
:1021400000F0B1FD049404A905480594FEF7CEFF04
:10215000002803D0A02103A000F0A5FD06B010BD0B
:10216000780000202E2E2F5372632F74696D2E631A
:102170000000000010B524488EB0224901605321B0
:102180000024C0E9011442F20F71C0E90314FEF704
:10219000E7FF18B1B2211DA000F085FD4FF480507B
:1021A000079007A91848FFF7B7F818B1B82117A08A
:1021B00000F079FD1448FFF708FC18B1BD2113A009
:1021C00000F071FD0B940BA90F480C94FEF78EFFE5
:1021D00018B1C4210DA000F066FD6020CDE9000417
:1021E00002940022694608480494FFF786FB18B160
:1021F000CD2106A000F057FD0348FFF737FB0EB0D6
:1022000010BD000000040040B40000202E2E2F530B
:1022100072632F74696D2E630000000010B53048A2
:1022200094B02E49016053210024C0E9011440F20A
:10223000CF71C0E903144461FEF792FF18B1E321A6
:1022400028A000F030FD4FF480500E900EA92448D5
:10225000FFF762F818B1E92122A000F024FD204820
:10226000FFF7B3FB18B1EE211EA000F01CFD129485
:1022700012A91B481394FEF739FF18B1F52119A0D4
:1022800000F011FD6020CDE9000402940394049451
:1022900005940022694612480694FFF72EFB20B1F0
:1022A00040F201110FA000F0FEFC0794089409947D
:1022B0004FF400500A94CDE90B4007A908480D944B
:1022C000FEF7E7FE20B140F20D1106A000F0EBFC96
:1022D0000348FFF7CBFA14B010BD00000004014022
:1022E000F00000202E2E2F5372632F74696D2E6321
:1022F000000000000D4810B50B4901604FF4E131BA
:102300004160002181600C22C160C0E9041281613A
:10231000C161FFF77FFC002805D0BDE810404221D5
:1023200003A000F0C0BC10BD001001401C02002042
:102330002E2E2F5372632F75736172742E630000FB
:10234000FEE770470907090E002806DA00F00F00C3
:1023500000F1E02080F8141D704700F1E02080F8C3
:10236000001470477047704710B5FEF72DFBBDE8AD
:102370001040FEF788BE000030B5254893B0002518
:10238000016841F080510160006800F080501190B8
:102390002048016841F4804101600068022400F493
:1023A0008040119001200090000401908001CDE94F
:1023B000064008200890A820CDE9090404200B90CD
:1023C0006846FEF7B1FC00B1FEE70CA90F2081E8DA
:1023D00031004FF4A0500F904FF480501090022124
:1023E0000CA8FEF7B3FB00B1FEE7FEF747FC4FF485
:1023F0007A71B0FBF1F0FEF732FE0420FEF722FE08
:1024000000221146501EFEF76FFB13B030BD0000D6
:1024100040380240007000401048016841F47001EB
:1024200001600F48016841F0010101600C4A002180
:102430000832116002680B4B1A400260031D0A4A01
:102440001A60026822F48022026005480C300160A4
:1024500002495806803908607047000088ED00E0A6
:1024600000380240FFFFF6FE1030002410B504488B
:10247000FFF749F9BDE810400248FFF744B90000F2
:102480003C0000202C0100200148FFF73CB900006F
:10249000780000200148FFF736B90000B4000020A2
:1024A00010B50448FFF72FF9BDE810400248FFF7C8
:1024B0002AB90000F0000020E001002010B5044817
:1024C000FFF721F9BDE810400248FFF71CB90000F2
:1024D000F0000020A4010020F0B50268234B244D39
:1024E000244E254F254C4FF0804C984209D0604532
:1024F00007D0A84205D0B04203D0B84201D0A042D4
:1025000004D122F0700E4A6842EA0E0298421BD0B3
:10251000604519D0A84217D0B04215D0B84213D0A8
:10252000A04211D0164DA8420ED0164DA8420BD095
:10253000154DA84208D0154DA84205D0144DA8420B
:1025400002D0144DA84203D122F44075CA682A4330
:1025500002608A68C2620A688262984201D0A04220
:1025600001D10969016301214161F0BD0000014011
:102570000004004000080040000C0040000401403E
:102580000040014000440140004801400018004064
:10259000001C00400020004010B50123046A8B405D
:1025A0009C430462036A8A401343036210BD10B562
:1025B0000423046A8B409C430462036A8A401343E9
:1025C000036210BD10B5846842EA032224F47F44FC
:1025D0000A432243826010BD826822F070020A43DF
:1025E00042F007018160704730B5026A22F00102B3
:1025F0000262026A436884690D6824F0730425430B
:1026000022F002048A6822430B4CA04202D00B4CF9
:10261000A0420BD122F00804CA6823F4407322437D
:102620004C6922F004021C438B692343436085619B
:1026300049684163026230BD00000140000401406E
:1026400030B5026A22F010020262026A43688469AD
:102650000D6824F4E64444EA05248D6822F0200243
:1026600042EA05120D4DA84202D00D4DA8420ED1EE
:10267000CD6822F0800242EA05124D6923F44063DE
:1026800043EA85038D6922F0400243EA85034360F3
:10269000846149688163026230BD0000000001402E
:1026A0000004014030B5026A22F480720262036ABB
:1026B0004268C46923F4007324F073050C682C434A
:1026C0008D6843EA05230D4DA84202D00C4DA84267
:1026D0000ED1CD6823F4006343EA05234D6922F44B
:1026E000405242EA05128D6923F4806342EA0512E2
:1026F0004260C4614968C163036230BD00000140AB
:102700000004014030B5026A22F480520262046A79
:102710004268C3690D6823F4E64343EA05238D68E4
:1027200024F4005444EA0534084DA84202D0084D70
:10273000A84204D14D6922F4804242EA85124260E7
:10274000C36149680164046230BD000000000140BB
:102750000004014010B5036A046A24F00104046215
:10276000846924F0F00444EA021423F00A020A43C4
:102770008461026210BD000070B5046A24F0010497
:1027800004628469056A164EB04214D0B0F1804FDD
:1027900011D0144EB0420ED0134EB0420BD0134E97
:1027A000B04208D0124EB04205D0124EB04202D014
:1027B000114EB04203D124F00304144303E024F08B
:1027C000030242F001041A0724F0F00444EA126202
:1027D00025F00A0301F00A0119438261016270BD0C
:1027E000000001400004004000080040000C0040D0
:1027F00000040140004001400018004010B5036A89
:1028000023F0100303628369046A23F4704343EAEC
:10281000023224F0A00343EA01118261016210BD7B
:1028200030B5046A24F0100404628469056A24F453
:10283000407444EA022222F470444FF6FF7202EA26
:1028400003322243A02425F0A00304EA0111194316
:102850008261016230BD10B5806B0021C185C184E9
:10286000FFF74FF910BD0168CA6822F49072CA6080
:1028700001684A6922F001024A61202180F83A1079
:10288000704710B590F83A10222901D0022010BDEF
:102890008168B1F5805F11D00169002901681FD0FE
:1028A000496801F07F03816A4A1C82620B70C18D06
:1028B000491E0904090CC18518D026E00269816A05
:1028C000002A0268526805D0D2B20A80816A491C87
:1028D0008162ECE7C2F308020A80816A891CF7E78B
:1028E0004A68816A4B1C83620A70E0E70168CA6823
:1028F00022F49072CA6001684A6922F001024A61BA
:10290000202180F83A10FFF709FA002010BD0000DE
:102910002DE9F04104460068016921F44052E16864
:10292000114301612168C86849F20C629043236930
:10293000A268E5691A4363692B431A430243CA60DC
:102940002168486920F44072A06910434861E16938
:102950006425B1F5004F9748974A21684FF0320837
:102960003FD0914201D081427CD1FEF79DF900EB2E
:10297000C00101EB001061688900B0FBF1F6FEF7C1
:1029800093F900EBC00101EB001061688900B0FB16
:10299000F1F0B0FBF5F06FF01801484306EB800151
:1029A00008EB0110B0FBF5F000F0F006FEF77CF943
:1029B00000EBC00101EB001061688900B0FBF1F091
:1029C000B0FBF5F006EB0016FEF76EF900EBC00168
:1029D00001EB001061688900B0FBF1F7FEF764F9C4
:1029E000D2E0914201D081423DD1FEF75DF900EB8A
:1029F000C00101EB001061684900B0FBF1F0B0FBD1
:102A0000F5F00601FEF750F900EBC00101EB0010F4
:102A100061684900B0FBF1F7FEF746F900EBC00131
:102A200001EB001061684900B0FBF1F0B0FBF5F07C
:102A30006FF01801484307EB800108EBC100B0FBC1
:102A4000F5F000F0F80006EB4006FEF72DF900EB7C
:102A5000C00101EB001061684900B0FBF1F7FEF71F
:102A600023F93CE055E0FEF70FF900EBC00101EB64
:102A7000001061684900B0FBF1F0B0FBF5F0060111
:102A8000FEF702F900EBC00101EB0010616849009C
:102A9000B0FBF1F7FEF7F8F800EBC00101EB001016
:102AA00061684900B0FBF1F0B0FBF5F06FF0180180
:102AB000484307EB800108EBC100B0FBF5F000F0E4
:102AC000F80006EB4006FEF7DFF800EBC00101EB73
:102AD000001061684900B0FBF1F7FEF7D5F800EB94
:102AE000C00101EB001061684900B0FBF1F0B0FBE0
:102AF000F5F06FF01801484307EB800108EBC100C7
:102B0000B0FBF5F000F00700216830448860BDE8B4
:102B1000F081FEF7B9F800EBC00101EB001061682D
:102B20008900B0FBF1F6FEF7AFF800EBC00101EB56
:102B3000001061688900B0FBF1F0B0FBF5F06FF0B8
:102B40001801484306EB800108EB0110B0FBF5F0DB
:102B500000F0F006FEF798F800EBC00101EB001062
:102B600061688900B0FBF1F0B0FBF5F006EB0016F0
:102B7000FEF78AF800EBC00101EB001061688900E4
:102B8000B0FBF1F7FEF780F800EBC00101EB00109D
:102B900061688900B0FBF1F0B0FBF5F06FF018014F
:102BA000484307EB800108EB0110B0FBF5F000F0A3
:102BB0000F00A9E7001401400010014090F83910FF
:102BC000212901D0022070478168B1F5805F016A38
:102BD0000BD04A1C0262026809785160C18C491E00
:102BE0000904090CC1840ED017E009880268C1F3FA
:102BF0000801516001690029016A02D0491C016283
:102C0000ECE7891CFBE70168CA6822F08002CA6011
:102C10000068C16841F04001C160002070472DE9A3
:102C2000F041984617460E460446069D1DE0681C76
:102C30001BD02DB1FDF7C2FEA0EB0800A84214D9AD
:102C40002068C16821F4D071C1602068416921F019
:102C500001014161202084F8390084F83A00002005
:102C600084F838000320BDE8F0812068006836EA67
:102C7000000004D00020B842D9D00020F3E70120A2
:102C8000F9E7000010B50548FEF73CFFBDE810402D
:102C9000012203490148FFF71DB800001C02002073
:102CA00000000020FEE7FEE70FB4054B10B503A9B6
:102CB000044A029800F0DAF810BC5DF814FB00003A
:102CC0009D3500083800002002E008C8121F08C126
:102CD000002AFAD170477047002001E001C1121F9D
:102CE000002AFBD1704700002DE9FF5F82B0002170
:102CF000DDE90430020DDDF840B0034318D044F69E
:102D00001050A2F2FF3242431514119801281FD02F
:102D1000A5EB0B00401C5FEA000A4FF000064E4F87
:102D2000DFF83891B046504615D5CAF1000413E0DB
:102D3000119801244AA3012801D16FEA0B010298DE
:102D4000119AC0E90031C0E9024206B0BDE8F09F27
:102D5000CBF10000DFE704460021404A491842EB6E
:102D60000450CDE9001012E0E00707D032463B46A0
:102D700040464946FDF770FC8046894632463B4650
:102D800010461946FDF768FC06460F466410002CF5
:102D9000EAD1DDE90401DDE90023BAF1000F06DA2A
:102DA000FDF75AFC42464B46FDF756FC05E0FDF7A1
:102DB00038FA42464B46FDF734FA04460E460022E6
:102DC000284BFDF7D3FC03D84FF0FF30014607E056
:102DD0000022254B20463146FDF797FBFDF7AEFC60
:102DE000102409E0002C0ADB0A220023FDF7E8F991
:102DF000039B30321A55641E50EA0102F2D1641C62
:102E0000039AC4F111031444119A012A03D0012238
:102E100008430DD10AE0084304D000204FF0110B05
:102E2000119072E7A3EB0B056D1E0DE05B4504DD11
:102E30004FF0000205F1010504E003DA4FF0000253
:102E4000A5F10105002AECD002981199C0E90231E0
:102E5000C0E9004579E70000000014400000F03FA1
:102E6000300000000000F0430000E03F2DE9FF4F7C
:102E700095B09B468946064600250FE2252877D166
:102E800000242746F84A0121059400E0044316F87F
:102E9000013F203B01FA03F01042F7D130782A2895
:102EA00011D06FF02F033078A0F13002092A16D824
:102EB000059A44F0020402EB820203EB4202104442
:102EC000761C0590EFE759F8042B0592002A03DAE7
:102ED000504244F40054059044F00204761C3078CB
:102EE0002E2816D116F8010F44F004042A280DD01C
:102EF0006FF02F023078A0F13003092B09D807EBCF
:102F0000870302EB4303C718761CF3E759F8047BE9
:102F1000761C30786C280FD006DC4C2817D0682837
:102F20000DD06A2814D104E0742810D07A280FD16B
:102F30000DE044F400140AE044F4801401E044F489
:102F400040147278824202D104F58014761C761CFB
:102F5000307866280BD013DC582877D009DC00289D
:102F600075D04528F6D04628F4D047281AD19DE1DF
:102F700018E0632835D0642879D0652812D195E10E
:102F8000702873D008DC6728F1D069286FD06E28CC
:102F90000DD06F2806D1B5E073282CD0752875D0D8
:102FA000782874D05A46179990476D1C75E1C4F380
:102FB0000250022809D003280DD0D9F800100428A7
:102FC0000DD00D6009F1040967E1D9F80010EA1786
:102FD000C1E90052F6E7D9F800100D80F2E70D7054
:102FE000F0E719F8041B8DF8001000208DF801009F
:102FF000EA46012003E059F804AB4FF0FF306107C7
:103000004FF0000102D40DE008F101018846B942F9
:103010000FDA8045F8DB1AF808100029F4D108E02F
:1030200008F1010188468142FADB1AF808100029EC
:10303000F6D105985B46A0EB080721463846179A5B
:1030400000F094FA284400EB080507E04DE029E180
:103050000DE01AF8010B5A4617999047B8F101088C
:10306000F7D25B4621463846179A13E142E00A221E
:103070000092C4F302524FF0000A022A08D059F815
:1030800004CB032A4FEAEC710AD00DE029E02AE0D4
:1030900009F1070121F00702F2E802C1914609E0B7
:1030A0000FFA8CFC4FEAEC71042A03D14FFA8CFC26
:1030B0004FEAEC71002907DA0A460021DCF1000C26
:1030C00061EB02012D2202E0220504D52B228DF8AE
:1030D0000420012203E0E20701D02022F7E7904616
:1030E00059E00A2102E010220DE010214FF0000A01
:1030F00000910BE010224FF0000A44F0040408276E
:10310000009203E008224FF0000A0092C4F302523A
:10311000022A05D059F804CB0021032A08D009E07F
:1031200009F1070121F00702F2E802C1914605E02A
:103130001FFA8CFC042A01D10CF0FF0C4FF00008A0
:10314000220728D5702806D0009B83F0100353EA8D
:103150000A0305D00EE040228DF80420012208E089
:103160005CEA010206D030228DF804208DF80500BB
:1031700002229046009B83F0080353EA0A030AD117
:103180005CEA010201D1620705D530228DF80420E6
:103190004FF001087F1E582804D034A003900EA8D9
:1031A00002900DE036A0F9E753466046009AFDF71D
:1031B00007F884460398825C0298401E02900270D1
:1031C0005CEA0100F0D1029806A9081A00F1200A71
:1031D000600702D524F4803400E00127574502DD62
:1031E000A7EB0A0000E0002000EB0A010090059820
:1031F0004144401A0590E00306D45B462146179AE5
:10320000059800F0B3F90544002706E001A85A46E6
:10321000C05D179990476D1C7F1C4745F6DBE003A6
:103220000CD55B462146179A059800F09FF9054496
:1032300004E030205A46179990476D1C0099481EAB
:1032400000900029F5DC08E0029802995A460078BF
:10325000491C0291179990476D1CBAF10001AAF11F
:10326000010AF1DC65E10000092801003031323348
:1032700034353637383961626364656600000000B2
:10328000303132333435363738394142434445469C
:103290000000000000F058F90544761C3078002842
:1032A0007FF4ECAD19B02846BDE8F08F620700D47A
:1032B000062709F1070222F0070CFCE80223E14689
:1032C00003F000485FEA080C02D00FF2702C0DE00A
:1032D0005FEA045C02D50FF2682C07E05FEAC47C69
:1032E00002D00FF2602C01E0AFF2700C4FF0FF380B
:1032F00023F00043CDF850C065280CD006DC4528EB
:1033000009D046281DD047283DD13DE0662818D079
:1033100067287ED138E00021112F01DB112000E069
:10332000781CCDE9000106A90EA8FFF7DDFCDDE958
:103330000F010E9A03910021009207F1010A0491F6
:103340004DE04FF000400097CDE9011006A90EA80E
:10335000FFF7CAFCDDE90F0203920E9B11990022D0
:10336000DDF80CA00093049211B9791C00EB010A5E
:10337000B7EB0A0004D4C0F1FF3007F1010A049052
:10338000AAEB0700019044E0012F00DA0127002199
:10339000112F01DD112000E03846CDE9000106A91A
:1033A0000EA8FFF7A1FCDDE90F010E9A03910021A1
:1033B00004910092BA4621070CD40399514500DAD2
:1033C0008A46BAF1010F05DD009AAAF10101515CAC
:1033D000302908D0B84202DA10F1040F06DA0121D0
:1033E000CDE9011015E0AAF10101E9E7002805DCAB
:1033F000049901440491AAEB000102E0411C5145EB
:1034000000DD8A460499401A401C01904FF00040AC
:103410000290200704D40198504501DBCDF80480C8
:1034200000208DF84F0002980DF14F07B0F1004FCA
:1034300025D02B200E9002984FF0020800280CDABD
:10344000404202902D200E9007E00A210298FCF7DE
:1034500093FF3031029007F8011DB8F10001A8F187
:103460000108F2DC02980028EFD1791E0E9808704E
:10347000307800F0200040F0450007F8020D12A857
:10348000C01B00F107081498007800B1012000EB80
:103490000A01019801EBE07105984144401A401E71
:1034A0000590E00306D45B462146179A059800F084
:1034B0005DF805441498007818B15A46179990475A
:1034C0006D1CE00324D55B462146179A059800F051
:1034D0004DF805441CE00498002807DBDDE90301F2
:1034E000884203DD0098405C179901E0179930206D
:1034F0005A469047049805F10105401C0490019834
:10350000401E019004D12E205A46179990476D1CF9
:10351000BAF10001AAF1010ADDDC05E017F8010BA0
:103520005A46179990476D1CB8F10001A8F101089F
:10353000F4DC5B462146179A0598ABE62D000000A7
:103540002B000000200000002DE9F041044600257A
:103550001E461746880404D405E039462020B047AB
:103560006D1C641EF9D52846BDE8F0812DE9F041B7
:10357000044600251E469046C80301D5302700E0CA
:103580002027880404D505E041463846B0476D1C25
:10359000641EF9D52846BDE8F081000013B54FF64A
:1035A000FF73012269460248FEF7CCFB00981CBD60
:1035B0001C020020FDF710FAFEF7DEFEFEF722FCEB
:1035C000FEF798FEFEF734FDFEF7D4FDFEF7B8FCDB
:1035D000FEF7F2FCFEF722FEFEF732FCFEF770FC6F
:1035E000FEF790FD0A2304221D491E48FEF7AAFBA0
:1035F0001B490122491E1B48FEF76CFB1A48FDF7C8
:103600007FFE00211948FEF758F800211848FEF700
:1036100054F800211748FEF750F800211648FEF72D
:10362000F1F900211548FEF7EDF900211448FEF7E5
:10363000E9F900210C48FDF781FD00211148FDF753
:103640007DFD0E48FDF75CFE0C4940F2F310096861
:103650004863054940F2CF7009684863FEE70000FF
:10366000010000201C0200203C000020A4010020DA
:10367000E0010020780000202C010020B400002090
:1036800068010020F00000200000000000000000A1
:1036900001020304060708090000000001020304F8
:1036A000C0360008000000203C000000C82C0008C4
:1036B000FC3600083C00002024060000D82C00083E
:1036C000006361736400000000000000000000005F
:1036D00000000000000000000000000000000000EA
:1036E00000000000000000000100000010000000C9
:0C36F000000000000024F40000000000B6
:040000050800018965
:00000001FF
